{
  "_format": "hh-sol-artifact-1",
  "contractName": "DDiscord",
  "sourceName": "contracts/DDiscord.sol",
  "abi": [
    {
      "anonymous": false,
      "inputs": [],
      "name": "ChannelCreated",
      "type": "event"
    },
    {
      "anonymous": false,
      "inputs": [],
      "name": "ChannelDeleted",
      "type": "event"
    },
    {
      "anonymous": false,
      "inputs": [],
      "name": "MessageDeleted",
      "type": "event"
    },
    {
      "anonymous": false,
      "inputs": [],
      "name": "MessageSent",
      "type": "event"
    },
    {
      "inputs": [
        {
          "internalType": "string",
          "name": "name",
          "type": "string"
        }
      ],
      "name": "createChannel",
      "outputs": [],
      "stateMutability": "nonpayable",
      "type": "function"
    },
    {
      "inputs": [
        {
          "internalType": "uint256",
          "name": "chId",
          "type": "uint256"
        }
      ],
      "name": "deleteChannel",
      "outputs": [],
      "stateMutability": "nonpayable",
      "type": "function"
    },
    {
      "inputs": [
        {
          "internalType": "uint256",
          "name": "chId",
          "type": "uint256"
        },
        {
          "internalType": "uint256",
          "name": "msgId",
          "type": "uint256"
        }
      ],
      "name": "deleteMessage",
      "outputs": [],
      "stateMutability": "nonpayable",
      "type": "function"
    },
    {
      "inputs": [],
      "name": "getChannels",
      "outputs": [
        {
          "components": [
            {
              "internalType": "uint256",
              "name": "id",
              "type": "uint256"
            },
            {
              "internalType": "string",
              "name": "name",
              "type": "string"
            },
            {
              "internalType": "address",
              "name": "author",
              "type": "address"
            },
            {
              "internalType": "uint256",
              "name": "timestamp",
              "type": "uint256"
            },
            {
              "internalType": "uint256[]",
              "name": "msgIDs",
              "type": "uint256[]"
            }
          ],
          "internalType": "struct DDiscord.Channel[]",
          "name": "",
          "type": "tuple[]"
        }
      ],
      "stateMutability": "view",
      "type": "function"
    },
    {
      "inputs": [
        {
          "internalType": "uint256",
          "name": "chId",
          "type": "uint256"
        }
      ],
      "name": "getMessages",
      "outputs": [
        {
          "components": [
            {
              "internalType": "uint256",
              "name": "id",
              "type": "uint256"
            },
            {
              "internalType": "address",
              "name": "author",
              "type": "address"
            },
            {
              "internalType": "uint256",
              "name": "timestamp",
              "type": "uint256"
            },
            {
              "internalType": "string",
              "name": "content",
              "type": "string"
            }
          ],
          "internalType": "struct DDiscord.Message[]",
          "name": "",
          "type": "tuple[]"
        }
      ],
      "stateMutability": "view",
      "type": "function"
    },
    {
      "inputs": [
        {
          "internalType": "uint256",
          "name": "chId",
          "type": "uint256"
        },
        {
          "internalType": "string",
          "name": "content",
          "type": "string"
        }
      ],
      "name": "sendMessage",
      "outputs": [],
      "stateMutability": "nonpayable",
      "type": "function"
    }
  ],
  "bytecode": "0x608060405234801561001057600080fd5b50611a1c806100206000396000f3fe608060405234801561001057600080fd5b50600436106100625760003560e01c806329e5865914610067578063854f146a146100835780639575f6ac1461009f578063aae8b592146100bd578063ae36853d146100d9578063cb6af4cb14610109575b600080fd5b610081600480360381019061007c9190611365565b610125565b005b61009d600480360381019061009891906113e6565b6104ba565b005b6100a76107de565b6040516100b491906116e1565b60405180910390f35b6100d760048036038101906100d2919061138e565b610a88565b005b6100f360048036038101906100ee9190611365565b610c3d565b6040516101009190611703565b60405180910390f35b610123600480360381019061011e9190611320565b610ede565b005b3373ffffffffffffffffffffffffffffffffffffffff166003600083815260200190815260200160002060020160009054906101000a900473ffffffffffffffffffffffffffffffffffffffff1673ffffffffffffffffffffffffffffffffffffffff161461019357600080fd5b60005b60036000838152602001908152602001600020600401805490508110156102905760046000838152602001908152602001600020600060036000858152602001908152602001600020600401838154811061021a577f4e487b7100000000000000000000000000000000000000000000000000000000600052603260045260246000fd5b906000526020600020015481526020019081526020016000206000808201600090556001820160006101000a81549073ffffffffffffffffffffffffffffffffffffffff0219169055600282016000905560038201600061027b91906110ed565b5050808061028890611917565b915050610196565b50600360008281526020019081526020016000206000808201600090556001820160006102bd91906110ed565b6002820160006101000a81549073ffffffffffffffffffffffffffffffffffffffff021916905560038201600090556004820160006102fc919061112d565b505060005b60018054905081101561048a578160018281548110610349577f4e487b7100000000000000000000000000000000000000000000000000000000600052603260045260246000fd5b906000526020600020015414156104775760008190505b600180805490506103719190611842565b811015610423576001808261038691906117ec565b815481106103bd577f4e487b7100000000000000000000000000000000000000000000000000000000600052603260045260246000fd5b906000526020600020015460018281548110610402577f4e487b7100000000000000000000000000000000000000000000000000000000600052603260045260246000fd5b9060005260206000200181905550808061041b90611917565b915050610360565b50600180548061045c577f4e487b7100000000000000000000000000000000000000000000000000000000600052603160045260246000fd5b6001900381819060005260206000200160009055905561048a565b808061048290611917565b915050610301565b507f017490a5dcac48076498a062114123de1bee198dbe6542484292f24e2697608c60405160405180910390a150565b3373ffffffffffffffffffffffffffffffffffffffff1660046000848152602001908152602001600020600083815260200190815260200160002060010160009054906101000a900473ffffffffffffffffffffffffffffffffffffffff1673ffffffffffffffffffffffffffffffffffffffff161461053957600080fd5b6004600083815260200190815260200160002060008281526020019081526020016000206000808201600090556001820160006101000a81549073ffffffffffffffffffffffffffffffffffffffff021916905560028201600090556003820160006105a591906110ed565b505060005b60036000848152602001908152602001600020600401805490508110156107ad578160036000858152602001908152602001600020600401828154811061061a577f4e487b7100000000000000000000000000000000000000000000000000000000600052603260045260246000fd5b9060005260206000200154141561079a5760008190505b600160036000868152602001908152602001600020600401805490506106579190611842565b811015610732576003600085815260200190815260200160002060040160018261068191906117ec565b815481106106b8577f4e487b7100000000000000000000000000000000000000000000000000000000600052603260045260246000fd5b9060005260206000200154600360008681526020019081526020016000206004018281548110610711577f4e487b7100000000000000000000000000000000000000000000000000000000600052603260045260246000fd5b9060005260206000200181905550808061072a90611917565b915050610631565b506003600084815260200190815260200160002060040180548061077f577f4e487b7100000000000000000000000000000000000000000000000000000000600052603160045260246000fd5b600190038181906000526020600020016000905590556107ad565b80806107a590611917565b9150506105aa565b507f432565ad7b66ed811353a0f584b0d00327b03ef2e09e565c738b7b7cb1b5609560405160405180910390a15050565b6060600060018054905067ffffffffffffffff811115610827577f4e487b7100000000000000000000000000000000000000000000000000000000600052604160045260246000fd5b60405190808252806020026020018201604052801561086057816020015b61084d61114e565b8152602001906001900390816108455790505b50905060005b600180549050811015610a805760036000600183815481106108b1577f4e487b7100000000000000000000000000000000000000000000000000000000600052603260045260246000fd5b906000526020600020015481526020019081526020016000206040518060a0016040529081600082015481526020016001820180546108ef906118e5565b80601f016020809104026020016040519081016040528092919081815260200182805461091b906118e5565b80156109685780601f1061093d57610100808354040283529160200191610968565b820191906000526020600020905b81548152906001019060200180831161094b57829003601f168201915b505050505081526020016002820160009054906101000a900473ffffffffffffffffffffffffffffffffffffffff1673ffffffffffffffffffffffffffffffffffffffff1673ffffffffffffffffffffffffffffffffffffffff1681526020016003820154815260200160048201805480602002602001604051908101604052809291908181526020018280548015610a2057602002820191906000526020600020905b815481526020019060010190808311610a0c575b505050505081525050828281518110610a62577f4e487b7100000000000000000000000000000000000000000000000000000000600052603260045260246000fd5b60200260200101819052508080610a7890611917565b915050610866565b508091505090565b6000600260008581526020019081526020016000206000815480929190610aae90611917565b9190505590506003600085815260200190815260200160002060040181908060018154018082558091505060019003906000526020600020016000909190919091505560405180608001604052808281526020013373ffffffffffffffffffffffffffffffffffffffff16815260200142815260200184848080601f016020809104026020016040519081016040528093929190818152602001838380828437600081840152601f19601f820116905080830192505050505050508152506004600086815260200190815260200160002060008381526020019081526020016000206000820151816000015560208201518160010160006101000a81548173ffffffffffffffffffffffffffffffffffffffff021916908373ffffffffffffffffffffffffffffffffffffffff160217905550604082015181600201556060820151816003019080519060200190610c07929190611193565b509050507f93f577e8125b7df1af7231b0cb025e655f9ce6eb86478fb1844e823b1bbb507c60405160405180910390a150505050565b60606000600360008481526020019081526020016000206004018054905067ffffffffffffffff811115610c9a577f4e487b7100000000000000000000000000000000000000000000000000000000600052604160045260246000fd5b604051908082528060200260200182016040528015610cd357816020015b610cc0611219565b815260200190600190039081610cb85790505b50905060005b6003600085815260200190815260200160002060040180549050811015610ed457600460008581526020019081526020016000206000600360008781526020019081526020016000206004018381548110610d5d577f4e487b7100000000000000000000000000000000000000000000000000000000600052603260045260246000fd5b90600052602060002001548152602001908152602001600020604051806080016040529081600082015481526020016001820160009054906101000a900473ffffffffffffffffffffffffffffffffffffffff1673ffffffffffffffffffffffffffffffffffffffff1673ffffffffffffffffffffffffffffffffffffffff16815260200160028201548152602001600382018054610dfb906118e5565b80601f0160208091040260200160405190810160405280929190818152602001828054610e27906118e5565b8015610e745780601f10610e4957610100808354040283529160200191610e74565b820191906000526020600020905b815481529060010190602001808311610e5757829003601f168201915b505050505081525050828281518110610eb6577f4e487b7100000000000000000000000000000000000000000000000000000000600052603260045260246000fd5b60200260200101819052508080610ecc90611917565b915050610cd9565b5080915050919050565b6000806000815480929190610ef290611917565b9190505590506040518060a0016040528082815260200184848080601f016020809104026020016040519081016040528093929190818152602001838380828437600081840152601f19601f8201169050808301925050505050505081526020013373ffffffffffffffffffffffffffffffffffffffff168152602001428152602001600067ffffffffffffffff811115610fb6577f4e487b7100000000000000000000000000000000000000000000000000000000600052604160045260246000fd5b604051908082528060200260200182016040528015610fe45781602001602082028036833780820191505090505b5081525060036000838152602001908152602001600020600082015181600001556020820151816001019080519060200190611021929190611193565b5060408201518160020160006101000a81548173ffffffffffffffffffffffffffffffffffffffff021916908373ffffffffffffffffffffffffffffffffffffffff16021790555060608201518160030155608082015181600401908051906020019061108f929190611257565b5090505060018190806001815401808255809150506001900390600052602060002001600090919091909150557f7eef5659fd58eab8dc3698f8722be2e2d928ff18ad602dd2d236f3a2e67d361c60405160405180910390a1505050565b5080546110f9906118e5565b6000825580601f1061110b575061112a565b601f01602090049060005260206000209081019061112991906112a4565b5b50565b508054600082559060005260206000209081019061114b91906112a4565b50565b6040518060a001604052806000815260200160608152602001600073ffffffffffffffffffffffffffffffffffffffff16815260200160008152602001606081525090565b82805461119f906118e5565b90600052602060002090601f0160209004810192826111c15760008555611208565b82601f106111da57805160ff1916838001178555611208565b82800160010185558215611208579182015b828111156112075782518255916020019190600101906111ec565b5b50905061121591906112a4565b5090565b604051806080016040528060008152602001600073ffffffffffffffffffffffffffffffffffffffff16815260200160008152602001606081525090565b828054828255906000526020600020908101928215611293579160200282015b82811115611292578251825591602001919060010190611277565b5b5090506112a091906112a4565b5090565b5b808211156112bd5760008160009055506001016112a5565b5090565b60008083601f8401126112d357600080fd5b8235905067ffffffffffffffff8111156112ec57600080fd5b60208301915083600182028301111561130457600080fd5b9250929050565b60008135905061131a816119cf565b92915050565b6000806020838503121561133357600080fd5b600083013567ffffffffffffffff81111561134d57600080fd5b611359858286016112c1565b92509250509250929050565b60006020828403121561137757600080fd5b60006113858482850161130b565b91505092915050565b6000806000604084860312156113a357600080fd5b60006113b18682870161130b565b935050602084013567ffffffffffffffff8111156113ce57600080fd5b6113da868287016112c1565b92509250509250925092565b600080604083850312156113f957600080fd5b60006114078582860161130b565b92505060206114188582860161130b565b9150509250929050565b600061142e83836115f2565b905092915050565b6000611442838361166f565b905092915050565b600061145683836116d2565b60208301905092915050565b61146b81611876565b82525050565b600061147c82611755565b61148681856117a8565b93508360208202850161149885611725565b8060005b858110156114d457848403895281516114b58582611422565b94506114c083611781565b925060208a0199505060018101905061149c565b50829750879550505050505092915050565b60006114f182611760565b6114fb81856117b9565b93508360208202850161150d85611735565b8060005b85811015611549578484038952815161152a8582611436565b94506115358361178e565b925060208a01995050600181019050611511565b50829750879550505050505092915050565b60006115668261176b565b61157081856117ca565b935061157b83611745565b8060005b838110156115ac578151611593888261144a565b975061159e8361179b565b92505060018101905061157f565b5085935050505092915050565b60006115c482611776565b6115ce81856117db565b93506115de8185602086016118b2565b6115e7816119be565b840191505092915050565b600060a08301600083015161160a60008601826116d2565b506020830151848203602086015261162282826115b9565b91505060408301516116376040860182611462565b50606083015161164a60608601826116d2565b5060808301518482036080860152611662828261155b565b9150508091505092915050565b600060808301600083015161168760008601826116d2565b50602083015161169a6020860182611462565b5060408301516116ad60408601826116d2565b50606083015184820360608601526116c582826115b9565b9150508091505092915050565b6116db816118a8565b82525050565b600060208201905081810360008301526116fb8184611471565b905092915050565b6000602082019050818103600083015261171d81846114e6565b905092915050565b6000819050602082019050919050565b6000819050602082019050919050565b6000819050602082019050919050565b600081519050919050565b600081519050919050565b600081519050919050565b600081519050919050565b6000602082019050919050565b6000602082019050919050565b6000602082019050919050565b600082825260208201905092915050565b600082825260208201905092915050565b600082825260208201905092915050565b600082825260208201905092915050565b60006117f7826118a8565b9150611802836118a8565b9250827fffffffffffffffffffffffffffffffffffffffffffffffffffffffffffffffff0382111561183757611836611960565b5b828201905092915050565b600061184d826118a8565b9150611858836118a8565b92508282101561186b5761186a611960565b5b828203905092915050565b600061188182611888565b9050919050565b600073ffffffffffffffffffffffffffffffffffffffff82169050919050565b6000819050919050565b60005b838110156118d05780820151818401526020810190506118b5565b838111156118df576000848401525b50505050565b600060028204905060018216806118fd57607f821691505b602082108114156119115761191061198f565b5b50919050565b6000611922826118a8565b91507fffffffffffffffffffffffffffffffffffffffffffffffffffffffffffffffff82141561195557611954611960565b5b600182019050919050565b7f4e487b7100000000000000000000000000000000000000000000000000000000600052601160045260246000fd5b7f4e487b7100000000000000000000000000000000000000000000000000000000600052602260045260246000fd5b6000601f19601f8301169050919050565b6119d8816118a8565b81146119e357600080fd5b5056fea26469706673582212206d6f5cd78677352ad6d9c7c554a11dabb2c496fbcc655f4b643e69d5865669a164736f6c63430008040033",
  "linkReferences": {},
  "deployedLinkReferences": {}
}